{
  "contractName": "ETHPool",
  "abi": [
    {
      "inputs": [],
      "stateMutability": "nonpayable",
      "type": "constructor"
    },
    {
      "anonymous": false,
      "inputs": [
        {
          "indexed": true,
          "internalType": "address",
          "name": "previousOwner",
          "type": "address"
        },
        {
          "indexed": true,
          "internalType": "address",
          "name": "newOwner",
          "type": "address"
        }
      ],
      "name": "OwnershipTransferred",
      "type": "event"
    },
    {
      "anonymous": false,
      "inputs": [
        {
          "indexed": false,
          "internalType": "uint256",
          "name": "amount",
          "type": "uint256"
        }
      ],
      "name": "TeamDeposit",
      "type": "event"
    },
    {
      "anonymous": false,
      "inputs": [
        {
          "indexed": false,
          "internalType": "address",
          "name": "_userAddr",
          "type": "address"
        },
        {
          "indexed": false,
          "internalType": "uint256",
          "name": "amount",
          "type": "uint256"
        }
      ],
      "name": "UserDeposit",
      "type": "event"
    },
    {
      "anonymous": false,
      "inputs": [
        {
          "indexed": false,
          "internalType": "address",
          "name": "_userAddr",
          "type": "address"
        },
        {
          "indexed": false,
          "internalType": "uint256",
          "name": "amount",
          "type": "uint256"
        }
      ],
      "name": "UserWithdraw",
      "type": "event"
    },
    {
      "inputs": [
        {
          "internalType": "address",
          "name": "",
          "type": "address"
        }
      ],
      "name": "depositAmount",
      "outputs": [
        {
          "internalType": "uint256",
          "name": "",
          "type": "uint256"
        }
      ],
      "stateMutability": "view",
      "type": "function",
      "constant": true
    },
    {
      "inputs": [
        {
          "internalType": "address",
          "name": "",
          "type": "address"
        }
      ],
      "name": "epochTime",
      "outputs": [
        {
          "internalType": "uint256",
          "name": "",
          "type": "uint256"
        }
      ],
      "stateMutability": "view",
      "type": "function",
      "constant": true
    },
    {
      "inputs": [],
      "name": "owner",
      "outputs": [
        {
          "internalType": "address",
          "name": "",
          "type": "address"
        }
      ],
      "stateMutability": "view",
      "type": "function",
      "constant": true
    },
    {
      "inputs": [],
      "name": "renounceOwnership",
      "outputs": [],
      "stateMutability": "nonpayable",
      "type": "function"
    },
    {
      "inputs": [],
      "name": "totalBalance",
      "outputs": [
        {
          "internalType": "uint256",
          "name": "",
          "type": "uint256"
        }
      ],
      "stateMutability": "view",
      "type": "function",
      "constant": true
    },
    {
      "inputs": [
        {
          "internalType": "address",
          "name": "newOwner",
          "type": "address"
        }
      ],
      "name": "transferOwnership",
      "outputs": [],
      "stateMutability": "nonpayable",
      "type": "function"
    },
    {
      "inputs": [
        {
          "internalType": "uint256",
          "name": "",
          "type": "uint256"
        }
      ],
      "name": "users",
      "outputs": [
        {
          "internalType": "address",
          "name": "",
          "type": "address"
        }
      ],
      "stateMutability": "view",
      "type": "function",
      "constant": true
    },
    {
      "inputs": [],
      "name": "depositReward",
      "outputs": [],
      "stateMutability": "payable",
      "type": "function",
      "payable": true
    },
    {
      "inputs": [],
      "name": "deposit",
      "outputs": [],
      "stateMutability": "payable",
      "type": "function",
      "payable": true
    },
    {
      "inputs": [],
      "name": "withdraw",
      "outputs": [],
      "stateMutability": "nonpayable",
      "type": "function"
    },
    {
      "inputs": [],
      "name": "getBlockTimestamp",
      "outputs": [
        {
          "internalType": "uint256",
          "name": "",
          "type": "uint256"
        }
      ],
      "stateMutability": "view",
      "type": "function",
      "constant": true
    }
  ],
  "bytecode": "0x60806040526000805460ff60a01b1916905534801561001d57600080fd5b50600080546001600160a01b031916339081178255604051909182917f8be0079c531659141344cd1fd0a4f28419497f9722a3daafe3b4186f6b6457e0908290a350600580546001810182556000919091527f036b6384b5eca791c62761152d0c79bb0604c104a5fb6f4eb0703f3154bb3db00180546001600160a01b03191633179055610d48806100b06000396000f3fe6080604052600436106100bc5760003560e01c8063796b89b911610074578063ad7a672f1161004e578063ad7a672f146101e5578063d0e30db0146101fb578063f2fde38b1461020357600080fd5b8063796b89b91461017a5780638da5cb5b1461018d5780638e476ab9146101b857600080fd5b806350f62da7116100a557806350f62da7146101225780635ec2dc8d1461015d578063715018a61461016557600080fd5b8063365b98b2146100c15780633ccfd60b1461010b575b600080fd5b3480156100cd57600080fd5b506100e16100dc366004610b7e565b610223565b60405173ffffffffffffffffffffffffffffffffffffffff90911681526020015b60405180910390f35b34801561011757600080fd5b5061012061025a565b005b34801561012e57600080fd5b5061014f61013d366004610b97565b60026020526000908152604090205481565b604051908152602001610102565b6101206104cd565b34801561017157600080fd5b5061012061076a565b34801561018657600080fd5b504261014f565b34801561019957600080fd5b5060005473ffffffffffffffffffffffffffffffffffffffff166100e1565b3480156101c457600080fd5b5061014f6101d3366004610b97565b60046020526000908152604090205481565b3480156101f157600080fd5b5061014f60015481565b61012061085a565b34801561020f57600080fd5b5061012061021e366004610b97565b6109cd565b6005818154811061023357600080fd5b60009182526020909120015473ffffffffffffffffffffffffffffffffffffffff16905081565b60005474010000000000000000000000000000000000000000900460ff16156102e4576040517f08c379a000000000000000000000000000000000000000000000000000000000815260206004820152600d60248201527f4e6f207265656e7472616e63790000000000000000000000000000000000000060448201526064015b60405180910390fd5b600080547fffffffffffffffffffffff00ffffffffffffffffffffffffffffffffffffffff167401000000000000000000000000000000000000000017815533815260026020526040902054610396576040517f08c379a000000000000000000000000000000000000000000000000000000000815260206004820152601c60248201527f6d757374206465706f736974206265666f72652077697468647261770000000060448201526064016102db565b4233600090815260046020526040902054111561040f576040517f08c379a000000000000000000000000000000000000000000000000000000000815260206004820152601d60248201527f596f752063616e2077697468647261772061667465722061207765656b00000060448201526064016102db565b3360008181526002602052604080822054905181156108fc0292818181858888f19350505050158015610446573d6000803e3d6000fd5b5033600081815260026020908152604091829020548251938452908301527f98824d89d47225910d3e61aa38b640d29d58b43e2dc47b4d986a588c88e0a2a8910160405180910390a13360009081526002602052604081208190554760015580547fffffffffffffffffffffff00ffffffffffffffffffffffffffffffffffffffff169055565b60005473ffffffffffffffffffffffffffffffffffffffff16331461054e576040517f08c379a000000000000000000000000000000000000000000000000000000000815260206004820181905260248201527f4f776e61626c653a2063616c6c6572206973206e6f7420746865206f776e657260448201526064016102db565b600034116105b8576040517f08c379a000000000000000000000000000000000000000000000000000000000815260206004820152600c60248201527f6d757374206465706f736974000000000000000000000000000000000000000060448201526064016102db565b33600090815260046020526040902054421015610631576040517f08c379a000000000000000000000000000000000000000000000000000000000815260206004820152601960248201527f63616e206465706f736974206f6e636520706572207765656b0000000000000060448201526064016102db565b3460005b60055481101561070f57600154600260006005848154811061065957610659610bd4565b600091825260208083209091015473ffffffffffffffffffffffffffffffffffffffff1683528201929092526040019020546106959084610c32565b61069f9190610c6f565b60026000600584815481106106b6576106b6610bd4565b600091825260208083209091015473ffffffffffffffffffffffffffffffffffffffff168352820192909252604001812080549091906106f7908490610caa565b9091555081905061070781610cc2565b915050610635565b5061071d4262093a80610caa565b3360009081526004602090815260409182902092909255518281527f128731e76bcfbaa70a9af12dfd9cda7d9ddb92444938d138c2e1acb1ff422df9910160405180910390a15047600155565b60005473ffffffffffffffffffffffffffffffffffffffff1633146107eb576040517f08c379a000000000000000000000000000000000000000000000000000000000815260206004820181905260248201527f4f776e61626c653a2063616c6c6572206973206e6f7420746865206f776e657260448201526064016102db565b6000805460405173ffffffffffffffffffffffffffffffffffffffff909116907f8be0079c531659141344cd1fd0a4f28419497f9722a3daafe3b4186f6b6457e0908390a3600080547fffffffffffffffffffffffff0000000000000000000000000000000000000000169055565b600034116108c4576040517f08c379a000000000000000000000000000000000000000000000000000000000815260206004820152600c60248201527f6d757374206465706f736974000000000000000000000000000000000000000060448201526064016102db565b33600090815260026020526040812080543492906108e3908490610caa565b909155506108f690504262093a80610caa565b3360009081526004602090815260408083209390935560039052205461098f57600580546001818101835560008390527f036b6384b5eca791c62761152d0c79bb0604c104a5fb6f4eb0703f3154bb3db090910180547fffffffffffffffffffffffff00000000000000000000000000000000000000001633179055905461097e9190610cfb565b336000908152600360205260409020555b604080513381523460208201527f35db3d768e685509e031bae369804ca7dc6656af739e079f1d3312cadc7b19d8910160405180910390a147600155565b60005473ffffffffffffffffffffffffffffffffffffffff163314610a4e576040517f08c379a000000000000000000000000000000000000000000000000000000000815260206004820181905260248201527f4f776e61626c653a2063616c6c6572206973206e6f7420746865206f776e657260448201526064016102db565b73ffffffffffffffffffffffffffffffffffffffff8116610af1576040517f08c379a000000000000000000000000000000000000000000000000000000000815260206004820152602660248201527f4f776e61626c653a206e6577206f776e657220697320746865207a65726f206160448201527f646472657373000000000000000000000000000000000000000000000000000060648201526084016102db565b6000805460405173ffffffffffffffffffffffffffffffffffffffff808516939216917f8be0079c531659141344cd1fd0a4f28419497f9722a3daafe3b4186f6b6457e091a3600080547fffffffffffffffffffffffff00000000000000000000000000000000000000001673ffffffffffffffffffffffffffffffffffffffff92909216919091179055565b600060208284031215610b9057600080fd5b5035919050565b600060208284031215610ba957600080fd5b813573ffffffffffffffffffffffffffffffffffffffff81168114610bcd57600080fd5b9392505050565b7f4e487b7100000000000000000000000000000000000000000000000000000000600052603260045260246000fd5b7f4e487b7100000000000000000000000000000000000000000000000000000000600052601160045260246000fd5b6000817fffffffffffffffffffffffffffffffffffffffffffffffffffffffffffffffff0483118215151615610c6a57610c6a610c03565b500290565b600082610ca5577f4e487b7100000000000000000000000000000000000000000000000000000000600052601260045260246000fd5b500490565b60008219821115610cbd57610cbd610c03565b500190565b60007fffffffffffffffffffffffffffffffffffffffffffffffffffffffffffffffff821415610cf457610cf4610c03565b5060010190565b600082821015610d0d57610d0d610c03565b50039056fea264697066735822122058fd1b9ff32df5af5578412036f3ae29691e912d622478d9b24f48fc6fbb604c64736f6c63430008090033",
  "immutableReferences": {},
  "source": "// SPDX-License-Identifier: UNLICENSED\r\n\r\npragma solidity ^0.8.0;\r\n\r\n/*\r\n * @dev Provides information about the current execution context, including the\r\n * sender of the transaction and its data. While these are generally available\r\n * via msg.sender and msg.data, they should not be accessed in such a direct\r\n * manner, since when dealing with meta-transactions the account sending and\r\n * paying for execution may not be the actual sender (as far as an application\r\n * is concerned).\r\n *\r\n * This contract is only required for intermediate, library-like contracts.\r\n */\r\nabstract contract Context {\r\n    function _msgSender() internal view virtual returns (address) {\r\n        return msg.sender;\r\n    }\r\n\r\n    function _msgData() internal view virtual returns (bytes calldata) {\r\n        this; // silence state mutability warning without generating bytecode - see https://github.com/ethereum/solidity/issues/2691\r\n        return msg.data;\r\n    }\r\n}\r\n\r\n/**\r\n * @dev Contract module which provides a basic access control mechanism, where\r\n * there is an account (an owner) that can be granted exclusive access to\r\n * specific functions.\r\n *\r\n * By default, the owner account will be the one that deploys the contract. This\r\n * can later be changed with {transferOwnership}.\r\n *\r\n * This module is used through inheritance. It will make available the modifier\r\n * `onlyOwner`, which can be applied to your functions to restrict their use to\r\n * the owner.\r\n */\r\nabstract contract Ownable is Context {\r\n    address private _owner;\r\n\r\n    event OwnershipTransferred(\r\n        address indexed previousOwner,\r\n        address indexed newOwner\r\n    );\r\n\r\n    /**\r\n     * @dev Initializes the contract setting the deployer as the initial owner.\r\n     */\r\n    constructor() {\r\n        address msgSender = _msgSender();\r\n        _owner = msgSender;\r\n        emit OwnershipTransferred(address(0), msgSender);\r\n    }\r\n\r\n    /**\r\n     * @dev Returns the address of the current owner.\r\n     */\r\n    function owner() public view virtual returns (address) {\r\n        return _owner;\r\n    }\r\n\r\n    /**\r\n     * @dev Throws if called by any account other than the owner.\r\n     */\r\n    modifier onlyOwner() {\r\n        require(owner() == _msgSender(), \"Ownable: caller is not the owner\");\r\n        _;\r\n    }\r\n\r\n    /**\r\n     * @dev Leaves the contract without owner. It will not be possible to call\r\n     * `onlyOwner` functions anymore. Can only be called by the current owner.\r\n     *\r\n     * NOTE: Renouncing ownership will leave the contract without an owner,\r\n     * thereby removing any functionality that is only available to the owner.\r\n     */\r\n    function renounceOwnership() public virtual onlyOwner {\r\n        emit OwnershipTransferred(_owner, address(0));\r\n        _owner = address(0);\r\n    }\r\n\r\n    /**\r\n     * @dev Transfers ownership of the contract to a new account (`newOwner`).\r\n     * Can only be called by the current owner.\r\n     */\r\n    function transferOwnership(address newOwner) public virtual onlyOwner {\r\n        require(\r\n            newOwner != address(0),\r\n            \"Ownable: new owner is the zero address\"\r\n        );\r\n        emit OwnershipTransferred(_owner, newOwner);\r\n        _owner = newOwner;\r\n    }\r\n}\r\n\r\ncontract ETHPool is Ownable {\r\n    bool private _reentrant = false;\r\n\r\n    modifier nonReentrant() {\r\n        require(!_reentrant, \"No reentrancy\");\r\n        _reentrant = true;\r\n        _;\r\n        _reentrant = false;\r\n    }\r\n\r\n    uint256 public totalBalance;\r\n\r\n    mapping(address => uint256) public depositAmount;\r\n    mapping(address => uint256) indexInArray;\r\n    mapping(address => uint256) public epochTime;\r\n    address[] public users;\r\n\r\n    modifier Sync() {\r\n        _;\r\n        totalBalance = address(this).balance;\r\n    }\r\n\r\n    event TeamDeposit(uint256 amount);\r\n    event UserDeposit(address _userAddr, uint256 amount);\r\n    event UserWithdraw(address _userAddr, uint256 amount);\r\n\r\n    constructor() {\r\n        users.push(msg.sender);\r\n    }\r\n\r\n    function depositReward() external payable onlyOwner Sync {\r\n        require(msg.value > 0, \"must deposit\");\r\n        require(\r\n            getBlockTimestamp() >= epochTime[msg.sender],\r\n            \"can deposit once per week\"\r\n        );\r\n        uint256 amount = msg.value;\r\n        for (uint256 i = 0; i < users.length; i++) {\r\n            depositAmount[users[i]] +=\r\n                (amount * depositAmount[users[i]]) /\r\n                totalBalance;\r\n        }\r\n        epochTime[msg.sender] = getBlockTimestamp() + 1 weeks;\r\n        emit TeamDeposit(amount);\r\n    }\r\n\r\n    function deposit() external payable Sync {\r\n        require(msg.value > 0, \"must deposit\");\r\n        depositAmount[msg.sender] += msg.value;\r\n        epochTime[msg.sender] = getBlockTimestamp() + 1 weeks;\r\n        if (indexInArray[msg.sender] == 0) {\r\n            users.push(msg.sender);\r\n            indexInArray[msg.sender] = users.length - 1;\r\n        }\r\n        emit UserDeposit(msg.sender, msg.value);\r\n    }\r\n\r\n    function withdraw() external nonReentrant Sync {\r\n        require(depositAmount[msg.sender] > 0, \"must deposit before withdraw\");\r\n        require(\r\n            epochTime[msg.sender] <= getBlockTimestamp(),\r\n            \"You can withdraw after a week\"\r\n        );\r\n        payable(msg.sender).transfer(depositAmount[msg.sender]);\r\n        emit UserWithdraw(msg.sender, depositAmount[msg.sender]);\r\n        depositAmount[msg.sender] = 0;\r\n    }\r\n\r\n    function getBlockTimestamp() public view virtual returns (uint256) {\r\n        return block.timestamp;\r\n    }\r\n}\r\n",
  "sourcePath": "E:\\GitWorks\\challenge\\contracts\\ETHPool.sol",
  "compiler": {
    "name": "solc",
    "version": "0.8.9+commit.e5eed63a.Emscripten.clang"
  },
  "schemaVersion": "3.4.3",
  "updatedAt": "2022-04-06T16:48:09.886Z",
  "networkType": "ethereum",
  "devdoc": {
    "kind": "dev",
    "methods": {
      "owner()": {
        "details": "Returns the address of the current owner."
      },
      "renounceOwnership()": {
        "details": "Leaves the contract without owner. It will not be possible to call `onlyOwner` functions anymore. Can only be called by the current owner. NOTE: Renouncing ownership will leave the contract without an owner, thereby removing any functionality that is only available to the owner."
      },
      "transferOwnership(address)": {
        "details": "Transfers ownership of the contract to a new account (`newOwner`). Can only be called by the current owner."
      }
    },
    "version": 1
  },
  "userdoc": {
    "kind": "user",
    "methods": {},
    "version": 1
  }
}